{
  "contractName": "likedprofile",
  "abi": [
    {
      "inputs": [],
      "payable": false,
      "stateMutability": "nonpayable",
      "type": "constructor"
    },
    {
      "constant": false,
      "inputs": [
        {
          "internalType": "address",
          "name": "_address",
          "type": "address"
        },
        {
          "internalType": "int256",
          "name": "_isliked",
          "type": "int256"
        },
        {
          "internalType": "string",
          "name": "_username",
          "type": "string"
        }
      ],
      "name": "likedlog",
      "outputs": [],
      "payable": true,
      "stateMutability": "payable",
      "type": "function"
    },
    {
      "constant": true,
      "inputs": [
        {
          "internalType": "address",
          "name": "_address",
          "type": "address"
        }
      ],
      "name": "seelikedcount",
      "outputs": [
        {
          "internalType": "uint256",
          "name": "",
          "type": "uint256"
        }
      ],
      "payable": false,
      "stateMutability": "view",
      "type": "function"
    },
    {
      "constant": true,
      "inputs": [
        {
          "internalType": "address",
          "name": "_address",
          "type": "address"
        }
      ],
      "name": "seelikedlog",
      "outputs": [
        {
          "internalType": "string[]",
          "name": "",
          "type": "string[]"
        }
      ],
      "payable": false,
      "stateMutability": "view",
      "type": "function"
    }
  ],
  "bytecode": "0x608060405234801561001057600080fd5b50336000806101000a81548173ffffffffffffffffffffffffffffffffffffffff021916908373ffffffffffffffffffffffffffffffffffffffff16021790555061073d806100606000396000f3fe6080604052600436106100345760003560e01c80631c08dfc914610039578063526061cc14610076578063bb2c260614610092575b600080fd5b34801561004557600080fd5b50610060600480360361005b91908101906103e7565b6100cf565b60405161006d9190610548565b60405180910390f35b610090600480360361008b9190810190610410565b6101ba565b005b34801561009e57600080fd5b506100b960048036036100b491908101906103e7565b610278565b6040516100c6919061056a565b60405180910390f35b60606002805480602002602001604051908101604052809291908181526020016000905b828210156101af578382906000526020600020018054600181600116156101000203166002900480601f01602080910402602001604051908101604052809291908181526020018280546001816001161561010002031660029004801561019b5780601f106101705761010080835404028352916020019161019b565b820191906000526020600020905b81548152906001019060200180831161017e57829003601f168201915b5050505050815260200190600101906100f3565b505050509050919050565b6001821415610273576000600160008573ffffffffffffffffffffffffffffffffffffffff1673ffffffffffffffffffffffffffffffffffffffff168152602001908152602001600020905060018160010160008282540192505081905550818160000190805190602001906102319291906102c4565b50600282908060018154018082558091505090600182039060005260206000200160009091929091909150908051906020019061026f9291906102c4565b5050505b505050565b6000600160008373ffffffffffffffffffffffffffffffffffffffff1673ffffffffffffffffffffffffffffffffffffffff168152602001908152602001600020600101549050919050565b828054600181600116156101000203166002900490600052602060002090601f016020900481019282601f1061030557805160ff1916838001178555610333565b82800160010185558215610333579182015b82811115610332578251825591602001919060010190610317565b5b5090506103409190610344565b5090565b61036691905b8082111561036257600081600090555060010161034a565b5090565b90565b600081359050610378816106cc565b92915050565b60008135905061038d816106e3565b92915050565b600082601f8301126103a457600080fd5b81356103b76103b2826105b2565b610585565b915080825260208301602083018583830111156103d357600080fd5b6103de838284610679565b50505092915050565b6000602082840312156103f957600080fd5b600061040784828501610369565b91505092915050565b60008060006060848603121561042557600080fd5b600061043386828701610369565b93505060206104448682870161037e565b925050604084013567ffffffffffffffff81111561046157600080fd5b61046d86828701610393565b9150509250925092565b60006104838383610500565b905092915050565b6000610496826105ee565b6104a08185610611565b9350836020820285016104b2856105de565b8060005b858110156104ee57848403895281516104cf8582610477565b94506104da83610604565b925060208a019950506001810190506104b6565b50829750879550505050505092915050565b600061050b826105f9565b6105158185610622565b9350610525818560208601610688565b61052e816106bb565b840191505092915050565b6105428161066f565b82525050565b60006020820190508181036000830152610562818461048b565b905092915050565b600060208201905061057f6000830184610539565b92915050565b6000604051905081810181811067ffffffffffffffff821117156105a857600080fd5b8060405250919050565b600067ffffffffffffffff8211156105c957600080fd5b601f19601f8301169050602081019050919050565b6000819050602082019050919050565b600081519050919050565b600081519050919050565b6000602082019050919050565b600082825260208201905092915050565b600082825260208201905092915050565b600061063e8261064f565b9050919050565b6000819050919050565b600073ffffffffffffffffffffffffffffffffffffffff82169050919050565b6000819050919050565b82818337600083830152505050565b60005b838110156106a657808201518184015260208101905061068b565b838111156106b5576000848401525b50505050565b6000601f19601f8301169050919050565b6106d581610633565b81146106e057600080fd5b50565b6106ec81610645565b81146106f757600080fd5b5056fea365627a7a723158200c54dc3eae507c2fb193320ec3a60ccd70262efad1d6e9c7f9993c4bef4116306c6578706572696d656e74616cf564736f6c63430005100040",
  "source": "pragma solidity ^0.5.16;\r\npragma experimental ABIEncoderV2;\r\n\r\ncontract likedprofile{\r\n     \r\n     //int isliked;\r\n     \r\n     address owner;\r\n\r\n     mapping(address => usermapping)  usermap;\r\n     \r\n     string [] private totalusersliked;\r\n     \r\n     constructor () public {\r\n    owner=msg.sender;\r\n        \r\n    }\r\n   \r\n    struct usermapping{\r\n       \r\n        string username;\r\n        uint likescount;\r\n        \r\n       \r\n}\r\n   \r\nfunction likedlog(address _address,int _isliked,string memory _username) public payable{\r\n     \r\n    if(_isliked == 1){\r\n        \r\n        usermapping storage user = usermap [_address];\r\n        user.likescount+=1;\r\n        user.username= _username;\r\n        totalusersliked.push(_username);\r\n        \r\n    }\r\n    \r\n   \r\n}\r\n\r\nfunction seelikedcount(address _address) public view returns(uint256){\r\n         return(usermap[_address].likescount);\r\n    \r\n}\r\n\r\nfunction seelikedlog(address _address) public view returns(string [] memory){\r\n         return totalusersliked;\r\n    \r\n}\r\n}",
  "sourcePath": "C:/Users/Rachana Parkar/Desktop/dating/eth/contracts/LikeProfile.sol",
  "compiler": {
    "name": "solc",
    "version": "0.5.16+commit.9c3226ce.Emscripten.clang"
  },
  "schemaVersion": "3.3.1",
  "updatedAt": "2021-05-07T04:05:41.714Z",
  "networkType": "ethereum",
  "devdoc": {
    "methods": {}
  },
  "userdoc": {
    "methods": {}
  }
}