{
  "contractName": "PasswordReset",
  "abi": [
    {
      "inputs": [],
      "payable": false,
      "stateMutability": "nonpayable",
      "type": "constructor"
    },
    {
      "constant": true,
      "inputs": [],
      "name": "price",
      "outputs": [
        {
          "internalType": "uint256",
          "name": "",
          "type": "uint256"
        }
      ],
      "payable": false,
      "stateMutability": "view",
      "type": "function"
    },
    {
      "constant": false,
      "inputs": [],
      "name": "changePassword",
      "outputs": [
        {
          "internalType": "uint256",
          "name": "",
          "type": "uint256"
        }
      ],
      "payable": true,
      "stateMutability": "payable",
      "type": "function"
    }
  ],
  "bytecode": "0x608060405234801561001057600080fd5b50336000806101000a81548173ffffffffffffffffffffffffffffffffffffffff021916908373ffffffffffffffffffffffffffffffffffffffff160217905550610189806100606000396000f3fe6080604052600436106100295760003560e01c8063a035b1fe1461002e578063b69b329714610059575b600080fd5b34801561003a57600080fd5b50610043610077565b6040518082815260200191505060405180910390f35b61006161007d565b6040518082815260200191505060405180910390f35b60015481565b60006001600260008060009054906101000a900473ffffffffffffffffffffffffffffffffffffffff1673ffffffffffffffffffffffffffffffffffffffff1673ffffffffffffffffffffffffffffffffffffffff16815260200190815260200160002060008282540192505081905550600260008060009054906101000a900473ffffffffffffffffffffffffffffffffffffffff1673ffffffffffffffffffffffffffffffffffffffff1673ffffffffffffffffffffffffffffffffffffffff1681526020019081526020016000205490509056fea265627a7a72315820e63b7c779633cfa4c60f25c3cc311aec8180cbeb685e755e001692cb18ba4de964736f6c63430005100032",
  "source": "pragma solidity 0.5.16;\r\n\r\ncontract PasswordReset{\r\n    \r\n    address owner;\r\n    constructor () public {\r\n    owner=msg.sender;\r\n        \r\n    }\r\n    uint public price;\r\n    mapping (address => uint) count;\r\n\r\n    function changePassword() payable public returns(uint){\r\n       \r\n\r\n        // Track that calling account for chainging the password. \r\n        count[owner] += 1;\r\n        return count[owner];\r\n    }\r\n}",
  "sourcePath": "C:/Users/Rachana Parkar/Desktop/dating/eth/contracts/PasswordReset.sol",
  "compiler": {
    "name": "solc",
    "version": "0.5.16+commit.9c3226ce.Emscripten.clang"
  },
  "schemaVersion": "3.3.1",
  "updatedAt": "2021-05-07T04:05:41.738Z",
  "networkType": "ethereum",
  "devdoc": {
    "methods": {}
  },
  "userdoc": {
    "methods": {}
  }
}