{
  "contractName": "Payment",
  "abi": [
    {
      "inputs": [],
      "payable": false,
      "stateMutability": "nonpayable",
      "type": "constructor"
    },
    {
      "constant": true,
      "inputs": [],
      "name": "price",
      "outputs": [
        {
          "internalType": "uint256",
          "name": "",
          "type": "uint256"
        }
      ],
      "payable": false,
      "stateMutability": "view",
      "type": "function"
    },
    {
      "constant": false,
      "inputs": [],
      "name": "AcceptEth",
      "outputs": [],
      "payable": false,
      "stateMutability": "nonpayable",
      "type": "function"
    },
    {
      "constant": false,
      "inputs": [],
      "name": "accept",
      "outputs": [
        {
          "internalType": "uint256",
          "name": "",
          "type": "uint256"
        }
      ],
      "payable": true,
      "stateMutability": "payable",
      "type": "function"
    }
  ],
  "bytecode": "0x608060405234801561001057600080fd5b50336000806101000a81548173ffffffffffffffffffffffffffffffffffffffff021916908373ffffffffffffffffffffffffffffffffffffffff1602179055506101c8806100606000396000f3fe6080604052600436106100345760003560e01c80632852b71c14610039578063a035b1fe14610057578063b6fac2c214610082575b600080fd5b610041610099565b6040518082815260200191505060405180910390f35b34801561006357600080fd5b5061006c61017d565b6040518082815260200191505060405180910390f35b34801561008e57600080fd5b50610097610183565b005b600060015434146100a957600080fd5b34600260008060009054906101000a900473ffffffffffffffffffffffffffffffffffffffff1673ffffffffffffffffffffffffffffffffffffffff1673ffffffffffffffffffffffffffffffffffffffff16815260200190815260200160002060008282540192505081905550600260008060009054906101000a900473ffffffffffffffffffffffffffffffffffffffff1673ffffffffffffffffffffffffffffffffffffffff1673ffffffffffffffffffffffffffffffffffffffff16815260200190815260200160002054905090565b60015481565b662386f26fc1000060018190555056fea265627a7a72315820ebe42a215b1a304ded4add26568b3825b91e033a9fb77f3f27cb9edde55d48ed64736f6c63430005100032",
  "source": "pragma solidity 0.5.16;\r\n\r\ncontract Payment{\r\n    \r\n    address owner;\r\n    constructor () public {\r\n    owner=msg.sender;\r\n        \r\n    }\r\n    uint public price;\r\n    mapping (address => uint) balance;\r\n\r\n    function AcceptEth() public {\r\n        // set owner as the address of the one who created the contract\r\n       // owner = msg.sender;\r\n        // set the price to 0.01 ether\r\n        price = 0.01 ether;\r\n    }\r\n\r\n    function accept() payable public returns(uint){\r\n        // Error out if anything other than 0.01 ether is sent\r\n        require(msg.value == price);\r\n\r\n        // Track that calling account deposited ether\r\n        balance[owner] += msg.value;\r\n        return balance[owner];\r\n    }\r\n}",
  "sourcePath": "C:/Users/Rachana Parkar/Desktop/dating/eth/contracts/Payment.sol",
  "compiler": {
    "name": "solc",
    "version": "0.5.16+commit.9c3226ce.Emscripten.clang"
  },
  "schemaVersion": "3.3.1",
  "updatedAt": "2021-05-07T04:05:41.721Z",
  "networkType": "ethereum",
  "devdoc": {
    "methods": {}
  },
  "userdoc": {
    "methods": {}
  }
}